:100000000C9445000C9461030C9488030C94AF038A
:100010000C947C050C947C050C947C050C947C055C
:100020000C947C050C947C050C94FD030C94E60266
:100030000C947C050C9424040C9472040C944B04D2
:100040000C943A030C947C050C947C050C94D60318
:100050000C947C0500600066800066007E000B0644
:10006000007E00848000840090000B1E00900098A9
:100070008000980099000B2A0099009A80009A004D
:100080009C000B2B009C009D800011241FBECFE51F
:10009000D8E0DEBFCDBFE4E5F0E040E017C0B591A9
:1000A000A59135912591059107FD0CC095918591FC
:1000B000EF01F92FE82F05900D92A217B307D9F79A
:1000C000FE0104C01D92A217B307E1F7E938F40757
:0E00D00031F70E9499040C943B05F894FFCF81
:1000DE0010C00E945D0558F00E94560540F029F4AC
:1000EE005F3F29F00C946B0551110C9465050C942F
:1000FE0079050E94E10468F39923B1F3552391F336
:10010E00951B550BBB27AA2762177307840738F078
:10011E009F5F5F4F220F331F441FAA1FA9F335D0D5
:10012E000E2E3AF0E0E832D091505040E695001C89
:10013E00CAF72BD0FE2F29D0660F771F881FBB1F43
:10014E00261737074807AB07B0E809F0BB0B802D21
:10015E00BF01FF2793585F4F3AF09E3F510578F04D
:10016E000C946B050C9465055F3FE4F3983ED4F355
:10017E00869577956795B795F7959F5FC9F7880F21
:10018E00911D9695879597F90895E1E0660F771F73
:10019E00881FBB1F621773078407BA0720F0621B04
:0E01AE00730B840BBA0BEE1F88F7E0950895D3
:1001BC000FC00E94560538F00E945D0520F0952373
:1001CC0011F00C946B050C94790511240C946505B5
:1001DC000E94E10470F3959FC1F3950F50E0551FF9
:1001EC00629FF001729FBB27F00DB11D639FAA2780
:1001FC00F00DB11DAA1F649F6627B00DA11D661FCF
:10020C00829F2227B00DA11D621F739FB00DA11DEF
:10021C00621F839FA00D611D221F749F3327A00DA9
:10022C00611D231F849F600D211D822F762F6A2F45
:10023C0011249F5750409AF0F1F088234AF0EE0FAA
:10024C00FF1FBB1F661F771F881F91505040A9F7D7
:10025C009E3F510580F00C946B050C9465055F3F37
:10026C00E4F3983ED4F3869577956795B795F79513
:10027C00E7959F5FC1F7FE2B880F911D969587958B
:04028C0097F9089541
:100290009B01482F61157105810509F44CC0FB01D4
:1002A000849147FD8081869586958770F9015491E8
:1002B00047FD508155FB662760F955FF03C061304B
:1002C000F1F03BC0F901949147FD90819370E92FC3
:1002D000F0E0EE0FFF1FE259FF4F0190F081E02D9B
:1002E000408121E030E0B90102C0660F771F8A9596
:1002F000E2F7CB0180958423808381E00895F901A2
:10030000949147FD90819370E92FF0E0EE0FFF1F6D
:10031000E259FF4F0190F081E02D408121E030E073
:10032000B90102C0660F771F8A95E2F7CB01842BD3
:0E033000808381E0089580E0089580E00895C4
:10033E00CF92DF92EF926B01E82E61157105810568
:10034E0009F445C0FB018491E7FC80818695869572
:10035E008770442319F04130F1F03BC0F6019491BF
:10036E00E7FC90819370E92FF0E0EE0FFF1FEA5942
:10037E00FF4F0190F081E02D408121E030E0B90186
:10038E0002C0660F771F8A95E2F7CB018095842312
:10039E00808381E01FC0F6019491E7FC90819370F9
:1003AE00E92FF0E0EE0FFF1FEA59FF4F0190F081A9
:1003BE00E02D408121E030E0B90102C0660F771FC9
:1003CE008A95E2F7CB01842B808381E003C080E025
:0C03DE0001C080E0EF90DF90CF90089508
:1003EA000F931F93CF93DF930F92CDB7DEB78C0194
:1003FA0093B7F8018081892B83BF8081883611F0F9
:10040A00883749F4809198008983BE016F5F7F4FD6
:10041A0080E80E94030593B7F8018181892B83BF85
:10042A0081818650823060F489818C7F8160817CF1
:10043A008F7B8983BE016F5F7F4F80E80E9403052F
:10044A00F8018381813051F489B7826089BF789439
:10045A00868197819093950080939400F801828118
:10046A00813051F489B7816089BF789484819581FC
:10047A0090939700809396000F90DF91CF911F91F0
:04048A000F91089531
:10048E00E89409C097FB3EF4909580957095619520
:10049E007F4F8F4F9F4F9923A9F0F92F96E9BB27D6
:1004AE009395F695879577956795B795F111F8CF52
:1004BE00FAF4BB0F11F460FF1BC06F5F7F4F8F4FBD
:1004CE009F4F16C0882311F096E911C0772321F0B3
:1004DE009EE8872F762F05C0662371F096E8862F4B
:1004EE0070E060E02AF09A95660F771F881FDAF7A2
:0A04FE00880F9695879597F90895E9
:10050800DC019C91E92FF0E012962D913C91139714
:10051800EE0FFF1FE258FF4F31832083913041F0E7
:1005280018F0923049F00BC08BB780648BBF07C0BE
:100538008BB780688BBF03C08BB780628BBF2C9151
:10054800223079F045B711969C9130E0220F331F85
:10055800892F90E002C0880F991F2A95E2F7842B13
:0605680085BF78940895A0
:10056E000E94E90488F09F5798F0B92F9927B75148
:10057E00B0F0E1F0660F771F881F991F1AF0BA9539
:10058E00C9F714C0B13091F00E946405B1E008952E
:10059E000C946405672F782F8827B85F39F0B93F20
:1005AE00CCF3869577956795B395D9F73EF49095EC
:0E05BE008095709561957F4F8F4F9F4F0895E8
:1005CC001F920F920FB60F9211242F933F934F93BC
:1005DC005F936F937F938F939F93AF93BF93EF939F
:1005EC00FF93809199008F5F80939900E091960022
:1005FC00F09197000995FF91EF91BF91AF919F9169
:10060C008F917F916F915F914F913F912F910F90AF
:08061C000FBE0F901F9018950E
:10062400A82FCB010097A10509F1FC012491A7FD96
:100634002081269526952770FC018491A7FD808151
:100644008370E82FF0E0EE0FFF1FEA59FF4F01908F
:10065400F081E02D308181E090E002C0880F991F85
:100664002A95E2F78327808381E0089580E0089546
:100674001F920F920FB60F9211242F933F934F9313
:100684005F936F937F938F939F93AF93BF93EF93F6
:10069400FF93E0919000F09191000995FF91EF9103
:1006A400BF91AF919F918F917F916F915F914F9186
:0E06B4003F912F910F900FBE0F901F90189541
:1006C2001F920F920FB60F9211242F933F934F93C5
:1006D2005F936F937F938F939F93AF93BF93EF93A8
:1006E200FF93E0917E00F0917F000995FF91EF91D9
:1006F200BF91AF919F918F917F916F915F914F9138
:0E0702003F912F910F900FBE0F901F901895F2
:100710001F920F920FB60F9211242F933F934F9376
:100720005F936F937F938F939F93AF93BF93EF9359
:10073000FF93E0918000F09181000995FF91EF9186
:10074000BF91AF919F918F917F916F915F914F91E9
:0E0750003F912F910F900FBE0F901F901895A4
:10075E001F920F920FB60F9211242F933F934F9328
:10076E005F936F937F938F939F93AF93BF93EF930B
:10077E00FF93E0918200F09183000995FF91EF9134
:10078E00BF91AF919F918F917F916F915F914F919B
:0E079E003F912F910F900FBE0F901F90189556
:1007AC001F920F920FB60F9211242F933F934F93DA
:1007BC005F936F937F938F939F93AF93BF93EF93BD
:1007CC00FF93E0919200F09193000995FF91EF91C6
:1007DC00BF91AF919F918F917F916F915F914F914D
:0E07EC003F912F910F900FBE0F901F90189508
:1007FA001F920F920FB60F9211242F933F934F938C
:10080A005F936F937F938F939F93AF93BF93EF936E
:10081A00FF93E0919400F09195000995FF91EF9173
:10082A00BF91AF919F918F917F916F915F914F91FE
:0E083A003F912F910F900FBE0F901F901895B9
:100848001F920F920FB60F9211242F933F934F933D
:100858005F936F937F938F939F93AF93BF93EF9320
:10086800FF93E0916400F09165000995FF91EF9185
:10087800BF91AF919F918F917F916F915F914F91B0
:0E0888003F912F910F900FBE0F901F9018956B
:100896001F920F920FB60F9211242F933F934F93EF
:1008A6005F936F937F938F939F93AF93BF93EF93D2
:1008B600FF93E0916000F09161000995FF91EF913F
:1008C600BF91AF919F918F917F916F915F914F9162
:0E08D6003F912F910F900FBE0F901F9018951D
:1008E4001F920F920FB60F9211242F933F934F93A1
:1008F4005F936F937F938F939F93AF93BF93EF9384
:10090400FF93E0916200F09163000995FF91EF91EC
:10091400BF91AF919F918F917F916F915F914F9113
:0E0924003F912F910F900FBE0F901F901895CE
:1009320086E790E00E94F50160E086E790E00E9481
:10094200BF048CE890E00E94840288E890E00E9454
:10095200840284E890E00E9484026BE970E080E8FF
:100962000E9403056AE970E080E80E940305609135
:0C0972009C0086E790E00E94BF04F9CFD3
:10097E00CF93DF93EC0170E080E090E00E9449029B
:10098E0020E030E048EC52E40E94710520E030E0B7
:10099E004FE753E40E9475050E94B702888188369E
:1009AE0011F46CBF04C0883711F460956CBFDF91F1
:0409BE00CF91089538
:1009C20057FD9058440F551F59F05F3F71F04795FE
:1009D200880F97FB991F61F09F3F79F087950895E3
:1009E200121613061406551FF2CF4695F1DF08C002
:1009F200161617061806991FF1CF8695710561051F
:040A020008940895B7
:100A0600CF92DF92EF9261157105810581F06B013E
:100A1600E82E0E944801F6014491E7FC408146FB1E
:100A2600442740F98E2DB6010E949F0101C080E047
:080A3600EF90DF90CF900895CE
:100A3E00092E0394000C11F4882352F0BB0F40F4DE
:100A4E00BF2B11F460FF04C06F5F7F4F8F4F9F4F1E
:020A5E000895F9
:100A60006BE970E080E80E9412036AE970E080E8B8
:060A70000E94120308952C
:100A7600EC010E9481050E948005CE010E9482053C
:060A8600CE010E947E0576
:100A8C0080919C00843618F4865F80939C000895B6
:100A9C0080919C00882319F08A5080939C000895C3
:0E0AAC0000240A941616170618060906089567
:0E0ABA0000240A941216130614060506089569
:0E0AC800E894BB2766277727CB0197F908959E
:0C0AD60097F99F6780E870E060E00895E9
:080AE2000E946F000C941F0537
:080AEA000E94DE000C941F05C0
:060AF2009FEF80EC089567
:040AF8000C9400005A
:040AFC000E946D00E7
:020B0000089556
:020B0200089554
:020B0400089552
:080B06003B003800350032000D
:080B0E003A0037003400310009
:080B160068030000000000006C
:040B1E000203300599
:040B220001034E0578
:040B2600000346057D
:010B2A002D9D
:010B2B0027A2
:010B2C006365
:00000001FF
